{
  "contractName": "Haal",
  "abi": [
    {
      "inputs": [
        {
          "internalType": "bytes32",
          "name": "_ballotIdentifier",
          "type": "bytes32"
        },
        {
          "internalType": "bytes",
          "name": "_encryptionPublicKey",
          "type": "bytes"
        },
        {
          "internalType": "address",
          "name": "_zkVerifier",
          "type": "address"
        }
      ],
      "payable": false,
      "stateMutability": "nonpayable",
      "type": "constructor"
    },
    {
      "constant": true,
      "inputs": [],
      "name": "ballotIdentifier",
      "outputs": [
        {
          "internalType": "bytes32",
          "name": "",
          "type": "bytes32"
        }
      ],
      "payable": false,
      "stateMutability": "view",
      "type": "function"
    },
    {
      "constant": true,
      "inputs": [],
      "name": "encryptionPublicKey",
      "outputs": [
        {
          "internalType": "bytes",
          "name": "",
          "type": "bytes"
        }
      ],
      "payable": false,
      "stateMutability": "view",
      "type": "function"
    },
    {
      "constant": true,
      "inputs": [
        {
          "internalType": "uint256",
          "name": "",
          "type": "uint256"
        }
      ],
      "name": "ephemeralVoterArray",
      "outputs": [
        {
          "internalType": "address",
          "name": "ephemeralAddress",
          "type": "address"
        },
        {
          "internalType": "bytes",
          "name": "pubKeyToRecover",
          "type": "bytes"
        },
        {
          "internalType": "bytes32",
          "name": "opMarker",
          "type": "bytes32"
        },
        {
          "internalType": "bool",
          "name": "canVote",
          "type": "bool"
        },
        {
          "internalType": "bool",
          "name": "voted",
          "type": "bool"
        }
      ],
      "payable": false,
      "stateMutability": "view",
      "type": "function"
    },
    {
      "constant": true,
      "inputs": [
        {
          "internalType": "address",
          "name": "",
          "type": "address"
        }
      ],
      "name": "ephemeralVoters",
      "outputs": [
        {
          "internalType": "uint256",
          "name": "",
          "type": "uint256"
        }
      ],
      "payable": false,
      "stateMutability": "view",
      "type": "function"
    },
    {
      "constant": true,
      "inputs": [],
      "name": "owner",
      "outputs": [
        {
          "internalType": "address",
          "name": "",
          "type": "address"
        }
      ],
      "payable": false,
      "stateMutability": "view",
      "type": "function"
    },
    {
      "constant": true,
      "inputs": [
        {
          "internalType": "address",
          "name": "",
          "type": "address"
        }
      ],
      "name": "realVoters",
      "outputs": [
        {
          "internalType": "uint256",
          "name": "",
          "type": "uint256"
        }
      ],
      "payable": false,
      "stateMutability": "view",
      "type": "function"
    },
    {
      "constant": true,
      "inputs": [],
      "name": "voteProofs",
      "outputs": [
        {
          "internalType": "uint256",
          "name": "",
          "type": "uint256"
        }
      ],
      "payable": false,
      "stateMutability": "view",
      "type": "function"
    },
    {
      "constant": true,
      "inputs": [],
      "name": "votersCount",
      "outputs": [
        {
          "internalType": "uint256",
          "name": "",
          "type": "uint256"
        }
      ],
      "payable": false,
      "stateMutability": "view",
      "type": "function"
    },
    {
      "constant": true,
      "inputs": [
        {
          "internalType": "address",
          "name": "",
          "type": "address"
        }
      ],
      "name": "votes",
      "outputs": [
        {
          "internalType": "uint256",
          "name": "",
          "type": "uint256"
        }
      ],
      "payable": false,
      "stateMutability": "view",
      "type": "function"
    },
    {
      "constant": true,
      "inputs": [],
      "name": "votesCount",
      "outputs": [
        {
          "internalType": "uint256",
          "name": "",
          "type": "uint256"
        }
      ],
      "payable": false,
      "stateMutability": "view",
      "type": "function"
    },
    {
      "constant": true,
      "inputs": [],
      "name": "zkVerifier",
      "outputs": [
        {
          "internalType": "address",
          "name": "",
          "type": "address"
        }
      ],
      "payable": false,
      "stateMutability": "view",
      "type": "function"
    },
    {
      "constant": false,
      "inputs": [
        {
          "internalType": "address",
          "name": "_address",
          "type": "address"
        },
        {
          "internalType": "bytes",
          "name": "_pubKeyToRecover",
          "type": "bytes"
        },
        {
          "internalType": "bytes32",
          "name": "_opMarker",
          "type": "bytes32"
        }
      ],
      "name": "addEphemeralVoter",
      "outputs": [
        {
          "internalType": "bool",
          "name": "",
          "type": "bool"
        }
      ],
      "payable": false,
      "stateMutability": "nonpayable",
      "type": "function"
    },
    {
      "constant": false,
      "inputs": [
        {
          "internalType": "bytes[]",
          "name": "_president",
          "type": "bytes[]"
        },
        {
          "internalType": "bytes[]",
          "name": "_senator",
          "type": "bytes[]"
        },
        {
          "internalType": "bytes[]",
          "name": "_stateGovernor",
          "type": "bytes[]"
        },
        {
          "internalType": "bytes32",
          "name": "_c",
          "type": "bytes32"
        }
      ],
      "name": "addVote",
      "outputs": [
        {
          "internalType": "bool",
          "name": "",
          "type": "bool"
        }
      ],
      "payable": false,
      "stateMutability": "nonpayable",
      "type": "function"
    },
    {
      "constant": false,
      "inputs": [
        {
          "internalType": "uint256[2]",
          "name": "_a",
          "type": "uint256[2]"
        },
        {
          "internalType": "uint256[2]",
          "name": "_a_p",
          "type": "uint256[2]"
        },
        {
          "internalType": "uint256[2][2]",
          "name": "_b",
          "type": "uint256[2][2]"
        },
        {
          "internalType": "uint256[2]",
          "name": "_b_p",
          "type": "uint256[2]"
        },
        {
          "internalType": "uint256[2]",
          "name": "_c",
          "type": "uint256[2]"
        },
        {
          "internalType": "uint256[2]",
          "name": "_c_p",
          "type": "uint256[2]"
        },
        {
          "internalType": "uint256[2]",
          "name": "_h",
          "type": "uint256[2]"
        },
        {
          "internalType": "uint256[2]",
          "name": "_k",
          "type": "uint256[2]"
        },
        {
          "internalType": "uint256[7]",
          "name": "_input",
          "type": "uint256[7]"
        }
      ],
      "name": "registerVoteProof",
      "outputs": [
        {
          "internalType": "bool",
          "name": "",
          "type": "bool"
        }
      ],
      "payable": false,
      "stateMutability": "nonpayable",
      "type": "function"
    },
    {
      "constant": true,
      "inputs": [
        {
          "internalType": "uint256",
          "name": "_index",
          "type": "uint256"
        }
      ],
      "name": "getEphemeralWallets",
      "outputs": [
        {
          "internalType": "address",
          "name": "",
          "type": "address"
        },
        {
          "internalType": "bytes",
          "name": "",
          "type": "bytes"
        },
        {
          "internalType": "bytes32",
          "name": "",
          "type": "bytes32"
        }
      ],
      "payable": false,
      "stateMutability": "view",
      "type": "function"
    },
    {
      "constant": true,
      "inputs": [
        {
          "internalType": "uint256",
          "name": "_index",
          "type": "uint256"
        }
      ],
      "name": "getVotes",
      "outputs": [
        {
          "internalType": "bytes[]",
          "name": "",
          "type": "bytes[]"
        },
        {
          "internalType": "bytes[]",
          "name": "",
          "type": "bytes[]"
        },
        {
          "internalType": "bytes[]",
          "name": "",
          "type": "bytes[]"
        }
      ],
      "payable": false,
      "stateMutability": "view",
      "type": "function"
    }
  ],
  "bytecode": "0x60806040523480156200001157600080fd5b5060405162002a1238038062002a1283398181016040526200003791908101906200021b565b33600660006101000a81548173ffffffffffffffffffffffffffffffffffffffff021916908373ffffffffffffffffffffffffffffffffffffffff16021790555082600881905550816009908051906020019062000097929190620000e2565b5080600760006101000a81548173ffffffffffffffffffffffffffffffffffffffff021916908373ffffffffffffffffffffffffffffffffffffffff1602179055505050506200038d565b828054600181600116156101000203166002900490600052602060002090601f016020900481019282601f106200012557805160ff191683800117855562000156565b8280016001018555821562000156579182015b828111156200015557825182559160200191906001019062000138565b5b50905062000165919062000169565b5090565b6200018e91905b808211156200018a57600081600090555060010162000170565b5090565b90565b600081519050620001a28162000359565b92915050565b600081519050620001b98162000373565b92915050565b600082601f830112620001d157600080fd5b8151620001e8620001e282620002b8565b6200028a565b915080825260208301602083018583830111156200020557600080fd5b6200021283828462000323565b50505092915050565b6000806000606084860312156200023157600080fd5b60006200024186828701620001a8565b935050602084015167ffffffffffffffff8111156200025f57600080fd5b6200026d86828701620001bf565b9250506040620002808682870162000191565b9150509250925092565b6000604051905081810181811067ffffffffffffffff82111715620002ae57600080fd5b8060405250919050565b600067ffffffffffffffff821115620002d057600080fd5b601f19601f8301169050602081019050919050565b6000620002f28262000303565b9050919050565b6000819050919050565b600073ffffffffffffffffffffffffffffffffffffffff82169050919050565b60005b838110156200034357808201518184015260208101905062000326565b8381111562000353576000848401525b50505050565b6200036481620002e5565b81146200037057600080fd5b50565b6200037e81620002f9565b81146200038a57600080fd5b50565b612675806200039d6000396000f3fe608060405234801561001057600080fd5b50600436106101005760003560e01c80638da5cb5b11610097578063d6df096d11610066578063d6df096d146102db578063d8bff5a5146102f9578063e016a8ac14610329578063ff9810991461035d57610100565b80638da5cb5b1461025157806398c079381461026f578063a14c8d6b1461028d578063b03f38c3146102bd57610100565b80636b902cf5116100d35780636b902cf5146101b55780637770a46c146101d3578063870ff0d4146102035780638778b27d1461023357610100565b806306a17105146101055780632bbd74a11461013757806347a7fd2e146101555780634f1f72ca14610185575b600080fd5b61011f600480360361011a9190810190611d9f565b61038f565b60405161012e939291906120ee565b60405180910390f35b61013f6104b9565b60405161014c919061227f565b60405180910390f35b61016f600480360361016a9190810190611b99565b6104bf565b60405161017c9190612264565b60405180910390f35b61019f600480360361019a9190810190611b70565b610647565b6040516101ac91906122bc565b60405180910390f35b6101bd61065f565b6040516101ca919061229a565b60405180910390f35b6101ed60048036036101e89190810190611cab565b6106fd565b6040516101fa9190612264565b60405180910390f35b61021d60048036036102189190810190611b70565b610b5c565b60405161022a91906122bc565b60405180910390f35b61023b610b74565b60405161024891906122bc565b60405180910390f35b610259610b7a565b60405161026691906120d3565b60405180910390f35b610277610ba0565b60405161028491906122bc565b60405180910390f35b6102a760048036036102a29190810190611c00565b610ba6565b6040516102b49190612264565b60405180910390f35b6102c5610dcd565b6040516102d291906122bc565b60405180910390f35b6102e3610dd3565b6040516102f091906120d3565b60405180910390f35b610313600480360361030e9190810190611b70565b610df9565b60405161032091906122bc565b60405180910390f35b610343600480360361033e9190810190611d9f565b610e11565b60405161035495949392919061212c565b60405180910390f35b61037760048036036103729190810190611d9f565b610f26565b60405161038693929190612186565b60405180910390f35b6000606060008084815481106103a157fe5b906000526020600020906004020160000160009054906101000a900473ffffffffffffffffffffffffffffffffffffffff16600085815481106103e057fe5b9060005260206000209060040201600101600086815481106103fe57fe5b906000526020600020906004020160020154818054600181600116156101000203166002900480601f0160208091040260200160405190810160405280929190818152602001828054600181600116156101000203166002900480156104a55780601f1061047a576101008083540402835291602001916104a5565b820191906000526020600020905b81548152906001019060200180831161048857829003601f168201915b505050505091509250925092509193909250565b60085481565b60008080548091906001016104d4919061123b565b50836000600160008054905003815481106104eb57fe5b906000526020600020906004020160000160006101000a81548173ffffffffffffffffffffffffffffffffffffffff021916908373ffffffffffffffffffffffffffffffffffffffff1602179055508260006001600080549050038154811061055057fe5b9060005260206000209060040201600101908051906020019061057492919061126d565b508160006001600080549050038154811061058b57fe5b90600052602060002090600402016002018190555060016000600160008054905003815481106105b757fe5b906000526020600020906004020160030160006101000a81548160ff021916908315150217905550600160008054905003600360008673ffffffffffffffffffffffffffffffffffffffff1673ffffffffffffffffffffffffffffffffffffffff168152602001908152602001600020819055506001600a60008282540192505081905550600190509392505050565b60036020528060005260406000206000915090505481565b60098054600181600116156101000203166002900480601f0160208091040260200160405190810160405280929190818152602001828054600181600116156101000203166002900480156106f55780601f106106ca576101008083540402835291602001916106f5565b820191906000526020600020905b8154815290600101906020018083116106d857829003601f168201915b505050505081565b6000806002600560003373ffffffffffffffffffffffffffffffffffffffff1673ffffffffffffffffffffffffffffffffffffffff168152602001908152602001600020548154811061074c57fe5b90600052602060002090601b0201905080601a0160009054906101000a900460ff161561077d576000915050610b4f565b6000600760009054906101000a900473ffffffffffffffffffffffffffffffffffffffff1690508073ffffffffffffffffffffffffffffffffffffffff16636416976d8d8d8d8d8d8d8d8d8d6040518a63ffffffff1660e01b81526004016107ed999897969594939291906121d2565b60206040518083038186803b15801561080557600080fd5b505afa158015610819573d6000803e3d6000fd5b505050506040513d601f19601f8201168201806040525061083d9190810190611d76565b61084c57600092505050610b4f565b6002805480919060010161086091906112ed565b503360026001600280549050038154811061087757fe5b90600052602060002090601b020160000160006101000a81548173ffffffffffffffffffffffffffffffffffffffff021916908373ffffffffffffffffffffffffffffffffffffffff1602179055508b6002600160028054905003815481106108dc57fe5b90600052602060002090601b02016001019060026108fb92919061131f565b508a60026001600280549050038154811061091257fe5b90600052602060002090601b020160030190600261093192919061131f565b508960026001600280549050038154811061094857fe5b90600052602060002090601b020160050190600261096792919061135f565b508860026001600280549050038154811061097e57fe5b90600052602060002090601b020160090190600261099d92919061131f565b50876002600160028054905003815481106109b457fe5b90600052602060002090601b0201600b019060026109d392919061131f565b50866002600160028054905003815481106109ea57fe5b90600052602060002090601b0201600d01906002610a0992919061131f565b5085600260016002805490500381548110610a2057fe5b90600052602060002090601b0201600f01906002610a3f92919061131f565b5084600260016002805490500381548110610a5657fe5b90600052602060002090601b0201601101906002610a7592919061131f565b5083600260016002805490500381548110610a8c57fe5b90600052602060002090601b0201601301906007610aab9291906113af565b506001600260016002805490500381548110610ac357fe5b90600052602060002090601b0201601a0160006101000a81548160ff021916908315150217905550600160028054905003600560003373ffffffffffffffffffffffffffffffffffffffff1673ffffffffffffffffffffffffffffffffffffffff168152602001908152602001600020819055506001600c600082825401925050819055506001925050505b9998505050505050505050565b60056020528060005260406000206000915090505481565b600b5481565b600660009054906101000a900473ffffffffffffffffffffffffffffffffffffffff1681565b600a5481565b6000806000600360003373ffffffffffffffffffffffffffffffffffffffff1673ffffffffffffffffffffffffffffffffffffffff1681526020019081526020016000205481548110610bf557fe5b906000526020600020906004020190508060030160019054906101000a900460ff1680610c3157508060030160009054906101000a900460ff16155b15610c40576000915050610dc5565b60018054809190600101610c5491906113ef565b508560018080805490500381548110610c6957fe5b90600052602060002090600402016000019080519060200190610c8d929190611421565b508460018080805490500381548110610ca257fe5b90600052602060002090600402016001019080519060200190610cc6929190611421565b508360018080805490500381548110610cdb57fe5b90600052602060002090600402016002019080519060200190610cff929190611421565b508260018080805490500381548110610d1457fe5b9060005260206000209060040201600301819055506001808054905003600460003373ffffffffffffffffffffffffffffffffffffffff1673ffffffffffffffffffffffffffffffffffffffff168152602001908152602001600020819055506001600b6000828254019250508190555060018160030160016101000a81548160ff02191690831515021790555060008160030160006101000a81548160ff02191690831515021790555060019150505b949350505050565b600c5481565b600760009054906101000a900473ffffffffffffffffffffffffffffffffffffffff1681565b60046020528060005260406000206000915090505481565b60008181548110610e1e57fe5b90600052602060002090600402016000915090508060000160009054906101000a900473ffffffffffffffffffffffffffffffffffffffff1690806001018054600181600116156101000203166002900480601f016020809104026020016040519081016040528092919081815260200182805460018160011615610100020316600290048015610ef05780601f10610ec557610100808354040283529160200191610ef0565b820191906000526020600020905b815481529060010190602001808311610ed357829003601f168201915b5050505050908060020154908060030160009054906101000a900460ff16908060030160019054906101000a900460ff16905085565b606080606060018481548110610f3857fe5b906000526020600020906004020160000160018581548110610f5657fe5b906000526020600020906004020160010160018681548110610f7457fe5b906000526020600020906004020160020182805480602002602001604051908101604052809291908181526020016000905b82821015611062578382906000526020600020018054600181600116156101000203166002900480601f01602080910402602001604051908101604052809291908181526020018280546001816001161561010002031660029004801561104e5780601f106110235761010080835404028352916020019161104e565b820191906000526020600020905b81548152906001019060200180831161103157829003601f168201915b505050505081526020019060010190610fa6565b50505050925081805480602002602001604051908101604052809291908181526020016000905b82821015611145578382906000526020600020018054600181600116156101000203166002900480601f0160208091040260200160405190810160405280929190818152602001828054600181600116156101000203166002900480156111315780601f1061110657610100808354040283529160200191611131565b820191906000526020600020905b81548152906001019060200180831161111457829003601f168201915b505050505081526020019060010190611089565b50505050915080805480602002602001604051908101604052809291908181526020016000905b82821015611228578382906000526020600020018054600181600116156101000203166002900480601f0160208091040260200160405190810160405280929190818152602001828054600181600116156101000203166002900480156112145780601f106111e957610100808354040283529160200191611214565b820191906000526020600020905b8154815290600101906020018083116111f757829003601f168201915b50505050508152602001906001019061116c565b5050505090509250925092509193909250565b815481835581811115611268576004028160040283600052602060002091820191016112679190611481565b5b505050565b828054600181600116156101000203166002900490600052602060002090601f016020900481019282601f106112ae57805160ff19168380011785556112dc565b828001600101855582156112dc579182015b828111156112db5782518255916020019190600101906112c0565b5b5090506112e99190611507565b5090565b81548183558181111561131a57601b0281601b028360005260206000209182019101611319919061152c565b5b505050565b826002810192821561134e579160200282015b8281111561134d578251825591602001919060010190611332565b5b50905061135b9190611507565b5090565b8260028002810192821561139e579160200282015b8281111561139d5782518290600261138d929190611616565b5091602001919060020190611374565b5b5090506113ab9190611656565b5090565b82600781019282156113de579160200282015b828111156113dd5782518255916020019190600101906113c2565b5b5090506113eb9190611507565b5090565b81548183558181111561141c5760040281600402836000526020600020918201910161141b9190611682565b5b505050565b828054828255906000526020600020908101928215611470579160200282015b8281111561146f57825182908051906020019061145f9291906116d9565b5091602001919060010190611441565b5b50905061147d9190611759565b5090565b61150491905b8082111561150057600080820160006101000a81549073ffffffffffffffffffffffffffffffffffffffff02191690556001820160006114c79190611785565b60028201600090556003820160006101000a81549060ff02191690556003820160016101000a81549060ff021916905550600401611487565b5090565b90565b61152991905b8082111561152557600081600090555060010161150d565b5090565b90565b61161391905b8082111561160f57600080820160006101000a81549073ffffffffffffffffffffffffffffffffffffffff021916905560018201600061157291906117cd565b60038201600061158291906117cd565b60058201600061159291906117db565b6009820160006115a291906117cd565b600b820160006115b291906117cd565b600d820160006115c291906117cd565b600f820160006115d291906117cd565b6011820160006115e291906117cd565b6013820160006115f291906117fc565b601a820160006101000a81549060ff021916905550601b01611532565b5090565b90565b8260028101928215611645579160200282015b82811115611644578251825591602001919060010190611629565b5b5090506116529190611507565b5090565b61167f91905b8082111561167b576000818161167291906117cd565b5060020161165c565b5090565b90565b6116d691905b808211156116d257600080820160006116a1919061180f565b6001820160006116b1919061180f565b6002820160006116c1919061180f565b600382016000905550600401611688565b5090565b90565b828054600181600116156101000203166002900490600052602060002090601f016020900481019282601f1061171a57805160ff1916838001178555611748565b82800160010185558215611748579182015b8281111561174757825182559160200191906001019061172c565b5b5090506117559190611507565b5090565b61178291905b8082111561177e57600081816117759190611785565b5060010161175f565b5090565b90565b50805460018160011615610100020316600290046000825580601f106117ab57506117ca565b601f0160209004906000526020600020908101906117c99190611507565b5b50565b506000815560010160009055565b50600081816117ea91906117cd565b5060020160006117fa91906117cd565b565b50806007019061180c9190611507565b50565b508054600082559060005260206000209081019061182d9190611759565b50565b60008135905061183f816125d6565b92915050565b600082601f83011261185657600080fd5b600261186961186482612304565b6122d7565b9150818385604084028201111561187f57600080fd5b60005b838110156118af5781611895888261192d565b845260208401935060408301925050600181019050611882565b5050505092915050565b600082601f8301126118ca57600080fd5b81356118dd6118d882612326565b6122d7565b9150818183526020840193506020810190508360005b8381101561192357813586016119098882611ab3565b8452602084019350602083019250506001810190506118f3565b5050505092915050565b600082601f83011261193e57600080fd5b600261195161194c8261234e565b6122d7565b9150818385602084028201111561196757600080fd5b60005b83811015611997578161197d8882611b5b565b84526020840193506020830192505060018101905061196a565b5050505092915050565b600082601f8301126119b257600080fd5b60026119c56119c082612370565b6122d7565b915081838560208402820111156119db57600080fd5b60005b83811015611a0b57816119f18882611b5b565b8452602084019350602083019250506001810190506119de565b5050505092915050565b600082601f830112611a2657600080fd5b6007611a39611a3482612392565b6122d7565b91508183856020840282011115611a4f57600080fd5b60005b83811015611a7f5781611a658882611b5b565b845260208401935060208301925050600181019050611a52565b5050505092915050565b600081519050611a98816125ed565b92915050565b600081359050611aad81612604565b92915050565b600082601f830112611ac457600080fd5b8135611ad7611ad2826123b4565b6122d7565b91508082526020830160208301858383011115611af357600080fd5b611afe838284612583565b50505092915050565b600082601f830112611b1857600080fd5b8135611b2b611b26826123e0565b6122d7565b91508082526020830160208301858383011115611b4757600080fd5b611b52838284612583565b50505092915050565b600081359050611b6a8161261b565b92915050565b600060208284031215611b8257600080fd5b6000611b9084828501611830565b91505092915050565b600080600060608486031215611bae57600080fd5b6000611bbc86828701611830565b935050602084013567ffffffffffffffff811115611bd957600080fd5b611be586828701611b07565b9250506040611bf686828701611a9e565b9150509250925092565b60008060008060808587031215611c1657600080fd5b600085013567ffffffffffffffff811115611c3057600080fd5b611c3c878288016118b9565b945050602085013567ffffffffffffffff811115611c5957600080fd5b611c65878288016118b9565b935050604085013567ffffffffffffffff811115611c8257600080fd5b611c8e878288016118b9565b9250506060611c9f87828801611a9e565b91505092959194509250565b60008060008060008060008060006103208a8c031215611cca57600080fd5b6000611cd88c828d016119a1565b9950506040611ce98c828d016119a1565b9850506080611cfa8c828d01611845565b975050610100611d0c8c828d016119a1565b965050610140611d1e8c828d016119a1565b955050610180611d308c828d016119a1565b9450506101c0611d428c828d016119a1565b935050610200611d548c828d016119a1565b925050610240611d668c828d01611a15565b9150509295985092959850929598565b600060208284031215611d8857600080fd5b6000611d9684828501611a89565b91505092915050565b600060208284031215611db157600080fd5b6000611dbf84828501611b5b565b91505092915050565b6000611dd48383611f3e565b60408301905092915050565b6000611dec8383612043565b905092915050565b6000611e0083836120b5565b60208301905092915050565b611e1581612531565b82525050565b611e2481612444565b611e2e81846124d2565b9250611e398261240c565b8060005b83811015611e6a578151611e518782611dc8565b9650611e5c83612491565b925050600181019050611e3d565b505050505050565b6000611e7d8261244f565b611e8781856124dd565b935083602082028501611e9985612416565b8060005b85811015611ed55784840389528151611eb68582611de0565b9450611ec18361249e565b925060208a01995050600181019050611e9d565b50829750879550505050505092915050565b611ef081612465565b611efa81846124f9565b9250611f0582612430565b8060005b83811015611f36578151611f1d8782611df4565b9650611f28836124b8565b925050600181019050611f09565b505050505050565b611f478161245a565b611f5181846124ee565b9250611f5c82612426565b8060005b83811015611f8d578151611f748782611df4565b9650611f7f836124ab565b925050600181019050611f60565b505050505050565b611f9e81612470565b611fa88184612504565b9250611fb38261243a565b8060005b83811015611fe4578151611fcb8782611df4565b9650611fd6836124c5565b925050600181019050611fb7565b505050505050565b611ff581612543565b82525050565b6120048161254f565b82525050565b600061201582612486565b61201f8185612520565b935061202f818560208601612592565b612038816125c5565b840191505092915050565b600061204e8261247b565b612058818561250f565b9350612068818560208601612592565b612071816125c5565b840191505092915050565b60006120878261247b565b6120918185612520565b93506120a1818560208601612592565b6120aa816125c5565b840191505092915050565b6120be81612579565b82525050565b6120cd81612579565b82525050565b60006020820190506120e86000830184611e0c565b92915050565b60006060820190506121036000830186611e0c565b8181036020830152612115818561200a565b90506121246040830184611ffb565b949350505050565b600060a0820190506121416000830188611e0c565b8181036020830152612153818761207c565b90506121626040830186611ffb565b61216f6060830185611fec565b61217c6080830184611fec565b9695505050505050565b600060608201905081810360008301526121a08186611e72565b905081810360208301526121b48185611e72565b905081810360408301526121c88184611e72565b9050949350505050565b6000610320820190506121e8600083018c611ee7565b6121f5604083018b611ee7565b612202608083018a611e1b565b612210610100830189611ee7565b61221e610140830188611ee7565b61222c610180830187611ee7565b61223a6101c0830186611ee7565b612248610200830185611ee7565b612256610240830184611f95565b9a9950505050505050505050565b60006020820190506122796000830184611fec565b92915050565b60006020820190506122946000830184611ffb565b92915050565b600060208201905081810360008301526122b4818461207c565b905092915050565b60006020820190506122d160008301846120c4565b92915050565b6000604051905081810181811067ffffffffffffffff821117156122fa57600080fd5b8060405250919050565b600067ffffffffffffffff82111561231b57600080fd5b602082029050919050565b600067ffffffffffffffff82111561233d57600080fd5b602082029050602081019050919050565b600067ffffffffffffffff82111561236557600080fd5b602082029050919050565b600067ffffffffffffffff82111561238757600080fd5b602082029050919050565b600067ffffffffffffffff8211156123a957600080fd5b602082029050919050565b600067ffffffffffffffff8211156123cb57600080fd5b601f19601f8301169050602081019050919050565b600067ffffffffffffffff8211156123f757600080fd5b601f19601f8301169050602081019050919050565b6000819050919050565b6000819050602082019050919050565b6000819050919050565b6000819050919050565b6000819050919050565b600060029050919050565b600081519050919050565b600060029050919050565b600060029050919050565b600060079050919050565b600081519050919050565b600081519050919050565b6000602082019050919050565b6000602082019050919050565b6000602082019050919050565b6000602082019050919050565b6000602082019050919050565b600081905092915050565b600082825260208201905092915050565b600081905092915050565b600081905092915050565b600081905092915050565b600082825260208201905092915050565b600082825260208201905092915050565b600061253c82612559565b9050919050565b60008115159050919050565b6000819050919050565b600073ffffffffffffffffffffffffffffffffffffffff82169050919050565b6000819050919050565b82818337600083830152505050565b60005b838110156125b0578082015181840152602081019050612595565b838111156125bf576000848401525b50505050565b6000601f19601f8301169050919050565b6125df81612531565b81146125ea57600080fd5b50565b6125f681612543565b811461260157600080fd5b50565b61260d8161254f565b811461261857600080fd5b50565b61262481612579565b811461262f57600080fd5b5056fea365627a7a723158205739dd8ecf6cba788f48f48a190ccec6abbc2a6369fcef98db97c694b2d4036e6c6578706572696d656e74616cf564736f6c63430005100040",
  "source": "// SPDX-License-Identifier: MIT\n\npragma solidity >=0.4.25;\npragma experimental ABIEncoderV2;\n\ncontract Verify { \n    function verifyProof( uint[2] calldata, uint[2] calldata, uint[2][2] calldata, uint[2] calldata, uint[2] calldata, uint[2] calldata, uint[2] calldata, uint[2] calldata, uint[7] calldata) external pure returns (bool){} \n}\n\ncontract Haal {\n\n    struct Votes {\n        bytes[] president;\n        bytes[] senator;\n        bytes[] stateGovernor;\n        bytes32 c;\n    }\n    \n    struct EphemeralVoter {\n        address ephemeralAddress;\n        bytes pubKeyToRecover;\n        bytes32 opMarker;\n        bool canVote;\n        bool voted;\n    }\n    \n    struct RealVoter {\n        address realVoterAddress;\n        uint[2] a;\n        uint[2] a_p;\n        uint[2][2] b;\n        uint[2] b_p;\n        uint[2] c;\n        uint[2] c_p;\n        uint[2] h;\n        uint[2] k;\n        uint[7] input;\n        bool voted;\n    }\n    \n    struct Result {\n        uint[] president;\n        uint[] senator;\n        uint[] stateGovernor;\n        bytes32[] encryptedResult;\n        bytes32[] proof;\n    }\n    \n    EphemeralVoter[] public ephemeralVoterArray;\n    Votes[] voteArray;\n    RealVoter[] realVoterArray;\n    \n    // Struct indexes\n    mapping(address => uint) public ephemeralVoters;\n    mapping(address => uint) public votes;\n    mapping(address => uint) public realVoters;\n\n    address public owner; // there's no access control implemented on this demo\n    address public zkVerifier;\n    bytes32 public ballotIdentifier;\n    bytes public encryptionPublicKey; // better if converted to hex\n    uint public votersCount;\n    uint public votesCount;\n    uint public voteProofs;\n    \n    constructor(\n        bytes32 _ballotIdentifier, \n        bytes memory _encryptionPublicKey, \n        address _zkVerifier\n        ) public {\n        owner = msg.sender;\n        ballotIdentifier = _ballotIdentifier;\n        encryptionPublicKey = _encryptionPublicKey;\n        zkVerifier = _zkVerifier;\n    }\n    \n    function addEphemeralVoter(\n        address _address, \n        bytes memory _pubKeyToRecover, \n        bytes32 _opMarker\n        ) public returns(bool){\n        \n        ephemeralVoterArray.length++;\n        ephemeralVoterArray[ephemeralVoterArray.length-1].ephemeralAddress = _address;\n        ephemeralVoterArray[ephemeralVoterArray.length-1].pubKeyToRecover = _pubKeyToRecover;\n        ephemeralVoterArray[ephemeralVoterArray.length-1].opMarker = _opMarker;\n        ephemeralVoterArray[ephemeralVoterArray.length-1].canVote = true;\n        \n        ephemeralVoters[_address] = ephemeralVoterArray.length-1;\n        \n        votersCount+=1;\n        return(true);\n    }\n    \n    function addVote(\n        bytes[] memory _president, \n        bytes[] memory _senator, \n        bytes[] memory _stateGovernor,\n        bytes32 _c\n        ) public returns(bool) {\n        \n        //EphemeralVoter storage sender = ephemeralVoters[msg.sender];\n        EphemeralVoter storage sender = ephemeralVoterArray[ephemeralVoters[msg.sender]];\n        if (sender.voted || !sender.canVote) return(false);\n        \n        voteArray.length++;\n        voteArray[voteArray.length-1].president = _president;\n        voteArray[voteArray.length-1].senator = _senator;\n        voteArray[voteArray.length-1].stateGovernor = _stateGovernor;\n        voteArray[voteArray.length-1].c = _c;\n        \n        votes[msg.sender] = voteArray.length-1;\n        \n        votesCount+=1;\n        \n        sender.voted = true;\n        sender.canVote = false;\n        return(true);\n    }\n    \n    function registerVoteProof(\n        uint[2] memory _a,\n        uint[2] memory _a_p,\n        uint[2][2] memory _b,\n        uint[2] memory _b_p,\n        uint[2] memory _c,\n        uint[2] memory _c_p,\n        uint[2] memory _h,\n        uint[2] memory _k,\n        uint[7] memory _input\n        ) public returns (bool) {\n        \n        RealVoter storage sender = realVoterArray[realVoters[msg.sender]];\n        if (sender.voted) return(false);\n        \n        Verify verifier = Verify(zkVerifier);\n        if (!verifier.verifyProof(_a, _a_p, _b, _b_p, _c, _c_p, _h, _k, _input)) return (false);\n        \n        realVoterArray.length++;\n        \n        realVoterArray[realVoterArray.length-1].realVoterAddress = msg.sender;\n        realVoterArray[realVoterArray.length-1].a = _a;\n        realVoterArray[realVoterArray.length-1].a_p = _a_p;\n        realVoterArray[realVoterArray.length-1].b = _b;\n        realVoterArray[realVoterArray.length-1].b_p = _b_p;\n        realVoterArray[realVoterArray.length-1].c = _c;\n        realVoterArray[realVoterArray.length-1].c_p = _c_p;\n        realVoterArray[realVoterArray.length-1].h = _h;\n        realVoterArray[realVoterArray.length-1].k = _k;\n        realVoterArray[realVoterArray.length-1].input = _input;\n        realVoterArray[realVoterArray.length-1].voted = true;\n        \n        realVoters[msg.sender] = realVoterArray.length-1;\n        \n        voteProofs+=1;\n        return(true);\n    }\n        \n    function getEphemeralWallets(uint _index) view public returns(address, bytes memory, bytes32){\n        return(\n            ephemeralVoterArray[_index].ephemeralAddress, \n            ephemeralVoterArray[_index].pubKeyToRecover, \n            ephemeralVoterArray[_index].opMarker\n            );\n    }\n    \n    function getVotes(uint _index) view public returns(bytes[] memory, bytes[] memory, bytes[] memory){\n        return(\n            voteArray[_index].president, \n            voteArray[_index].senator, \n            voteArray[_index].stateGovernor\n            );\n    }\n    \n}",
  "sourcePath": "/home/moumen_ux/node/eGovF/contracts/Haal.sol",
  "compiler": {
    "name": "solc",
    "version": "0.5.16+commit.9c3226ce.Emscripten.clang"
  },
  "schemaVersion": "3.4.6",
  "updatedAt": "2022-04-13T22:58:12.639Z",
  "networkType": "ethereum",
  "devdoc": {
    "methods": {}
  },
  "userdoc": {
    "methods": {}
  }
}